Component: ARM Compiler 5.05 update 1 (build 106) Tool: armlink [4d0efa]

==============================================================================

Section Cross References

    startup_stm32f40xx.o(RESET) refers to startup_stm32f40xx.o(STACK) for __initial_sp
    startup_stm32f40xx.o(RESET) refers to startup_stm32f40xx.o(.text) for Reset_Handler
    startup_stm32f40xx.o(RESET) refers to stm32f4xx_it.o(i.NMI_Handler) for NMI_Handler
    startup_stm32f40xx.o(RESET) refers to stm32f4xx_it.o(i.HardFault_Handler) for HardFault_Handler
    startup_stm32f40xx.o(RESET) refers to stm32f4xx_it.o(i.MemManage_Handler) for MemManage_Handler
    startup_stm32f40xx.o(RESET) refers to stm32f4xx_it.o(i.BusFault_Handler) for BusFault_Handler
    startup_stm32f40xx.o(RESET) refers to stm32f4xx_it.o(i.UsageFault_Handler) for UsageFault_Handler
    startup_stm32f40xx.o(RESET) refers to port.o(.emb_text) for SVC_Handler
    startup_stm32f40xx.o(RESET) refers to stm32f4xx_it.o(i.DebugMon_Handler) for DebugMon_Handler
    startup_stm32f40xx.o(RESET) refers to delay.o(i.SysTick_Handler) for SysTick_Handler
    startup_stm32f40xx.o(RESET) refers to beeper.o(i.TIM3_IRQHandler) for TIM3_IRQHandler
    startup_stm32f40xx.o(.text) refers to system_stm32f4xx.o(i.SystemInit) for SystemInit
    startup_stm32f40xx.o(.text) refers to entry.o(.ARM.Collect$$$$00000000) for __main
    system_stm32f4xx.o(i.SystemCoreClockUpdate) refers to system_stm32f4xx.o(.data) for .data
    system_stm32f4xx.o(i.SystemInit) refers to system_stm32f4xx.o(i.SetSysClock) for SetSysClock
    stm32f4xx_adc.o(i.ADC_DeInit) refers to stm32f4xx_rcc.o(i.RCC_APB2PeriphResetCmd) for RCC_APB2PeriphResetCmd
    stm32f4xx_dac.o(i.DAC_DeInit) refers to stm32f4xx_rcc.o(i.RCC_APB1PeriphResetCmd) for RCC_APB1PeriphResetCmd
    stm32f4xx_dma2d.o(i.DMA2D_DeInit) refers to stm32f4xx_rcc.o(i.RCC_AHB1PeriphResetCmd) for RCC_AHB1PeriphResetCmd
==============================================================================

Removing Unused input sections from the image.

    Removing startup_stm32f40xx.o(HEAP), (512 bytes).
    Removing system_stm32f4xx.o(.rev16_text), (4 bytes).
    Removing system_stm32f4xx.o(.revsh_text), (4 bytes).
    Removing system_stm32f4xx.o(.rrx_text), (6 bytes).
    Removing system_stm32f4xx.o(i.SystemCoreClockUpdate), (120 bytes).
    Removing misc.o(.rev16_text), (4 bytes).
    Removing misc.o(.revsh_text), (4 bytes).
    Removing misc.o(.rrx_text), (6 bytes).
    Removing misc.o(i.NVIC_SetVectorTable), (20 bytes).
    Removing misc.o(i.NVIC_SystemLPConfig), (24 bytes).
    Removing stm32f4xx_adc.o(.rev16_text), (4 bytes).
    Removing stm32f4xx_adc.o(.revsh_text), (4 bytes).
    Removing stm32f4xx_adc.o(.rrx_text), (6 bytes).
    Removing stm32f4xx_adc.o(i.ADC_AnalogWatchdogCmd), (16 bytes).
    Removing stm32f4xx_adc.o(i.ADC_AnalogWatchdogSingleChannelConfig), (12 bytes).
    Removing stm32f4xx_adc.o(i.ADC_AnalogWatchdogThresholdsConfig), (6 bytes).
    Removing stm32f4xx_adc.o(i.ADC_AutoInjectedConvCmd), (20 bytes).
    Removing stm32f4xx_adc.o(i.ADC_ClearFlag), (6 bytes).
==============================================================================

Image Symbol Table

    Local Symbols

    Symbol Name                              Value     Ov Type        Size  Object(Section)

    ../clib/microlib/division.c              0x00000000   Number         0  uidiv.o ABSOLUTE
    ../clib/microlib/division.c              0x00000000   Number         0  uldiv.o ABSOLUTE
    ../clib/microlib/init/entry.s            0x00000000   Number         0  entry.o ABSOLUTE
    ../clib/microlib/init/entry.s            0x00000000   Number         0  entry7b.o ABSOLUTE
    ../clib/microlib/init/entry.s            0x00000000   Number         0  entry5.o ABSOLUTE
    ../clib/microlib/init/entry.s            0x00000000   Number         0  entry9a.o ABSOLUTE
    ../clib/microlib/init/entry.s            0x00000000   Number         0  entry8a.o ABSOLUTE
    ../clib/microlib/init/entry.s            0x00000000   Number         0  entry2.o ABSOLUTE
    ../clib/microlib/init/entry.s            0x00000000   Number         0  entry8b.o ABSOLUTE
    ../clib/microlib/init/entry.s            0x00000000   Number         0  entry10b.o ABSOLUTE
    ../clib/microlib/init/entry.s            0x00000000   Number         0  entry9b.o ABSOLUTE
    ../clib/microlib/init/entry.s            0x00000000   Number         0  entry10a.o ABSOLUTE
    ../clib/microlib/init/entry.s            0x00000000   Number         0  entry7a.o ABSOLUTE
    ../clib/microlib/init/entry.s            0x00000000   Number         0  entry11b.o ABSOLUTE
    ../clib/microlib/init/entry.s            0x00000000   Number         0  entry11a.o ABSOLUTE
    ../clib/microlib/longlong.c              0x00000000   Number         0  llshl.o ABSOLUTE
    ../clib/microlib/longlong.c              0x00000000   Number         0  llushr.o ABSOLUTE
    ../clib/microlib/longlong.c              0x00000000   Number         0  llsshr.o ABSOLUTE
    ../clib/microlib/printf/printf.c         0x00000000   Number         0  printfa.o ABSOLUTE
    ../clib/microlib/printf/printf.c         0x00000000   Number         0  printf0.o ABSOLUTE
    ../clib/microlib/printf/printf.c         0x00000000   Number         0  printf4.o ABSOLUTE
    ../clib/microlib/printf/printf.c         0x00000000   Number         0  printfb.o ABSOLUTE
    ../clib/microlib/printf/printf.c         0x00000000   Number         0  printf1.o ABSOLUTE
    ../clib/microlib/printf/printf.c         0x00000000   Number         0  printf5.o ABSOLUTE
    ../clib/microlib/printf/printf.c         0x00000000   Number         0  printf3.o ABSOLUTE
    ../clib/microlib/printf/printf.c         0x00000000   Number         0  printf8.o ABSOLUTE
    ../clib/microlib/printf/printf.c         0x00000000   Number         0  printf2.o ABSOLUTE
    ../clib/microlib/printf/printf.c         0x00000000   Number         0  printf7.o ABSOLUTE
    ../clib/microlib/printf/printf.c         0x00000000   Number         0  printf6.o ABSOLUTE
    ../clib/microlib/printf/stubs.s          0x00000000   Number         0  stubs.o ABSOLUTE
    ../clib/microlib/stdio/streams.c         0x00000000   Number         0  stdout.o ABSOLUTE
    ../clib/microlib/string/memcpy.c         0x00000000   Number         0  memcpya.o ABSOLUTE
    ../clib/microlib/string/memcpy.c         0x00000000   Number         0  memcpyb.o ABSOLUTE
    ../clib/microlib/stubs.s                 0x00000000   Number         0  iusefp.o ABSOLUTE
    ../fplib/microlib/fpadd.c                0x00000000   Number         0  dadd.o ABSOLUTE
    ../fplib/microlib/fpdiv.c                0x00000000   Number         0  ddiv.o ABSOLUTE
    ../fplib/microlib/fpepilogue.c           0x00000000   Number         0  depilogue.o ABSOLUTE
    ../fplib/microlib/fpfix.c                0x00000000   Number         0  dfixul.o ABSOLUTE
    ../fplib/microlib/fpmul.c                0x00000000   Number         0  dmul.o ABSOLUTE
    ..\FreeRTOS\port\MemMang\heap_4.c        0x00000000   Number         0  heap_4.o ABSOLUTE
    ..\FreeRTOS\port\RVDS\ARM_CM4F\port.c    0x00000000   Number         0  port.o ABSOLUTE
    ..\FreeRTOS\src\croutine.c               0x00000000   Number         0  croutine.o ABSOLUTE
    ..\FreeRTOS\src\event_groups.c           0x00000000   Number         0  event_groups.o ABSOLUTE
    ..\FreeRTOS\src\list.c                   0x00000000   Number         0  list.o ABSOLUTE
    ..\FreeRTOS\src\queue.c                  0x00000000   Number         0  queue.o ABSOLUTE
    ..\FreeRTOS\src\tasks.c                  0x00000000   Number         0  tasks.o ABSOLUTE
    ..\FreeRTOS\src\timers.c                 0x00000000   Number         0  timers.o ABSOLUTE
    ..\Libraries\CMSIS\Device\ST\STM32F4xx\Source\Templates\arm\startup_stm32f40xx.s 0x00000000   Number         0  startup_stm32f40xx.o ABSOLUTE
    ..\Libraries\CMSIS\Device\ST\STM32F4xx\Source\Templates\system_stm32f4xx.c 0x00000000   Number         0  system_stm32f4xx.o ABSOLUTE
    ..\Libraries\STM32F4xx_StdPeriph_Driver\src\misc.c 0x00000000   Number         0  misc.o ABSOLUTE
    ..\Libraries\STM32F4xx_StdPeriph_Driver\src\stm32f4xx_adc.c 0x00000000   Number         0  stm32f4xx_adc.o ABSOLUTE
    ..\Libraries\STM32F4xx_StdPeriph_Driver\src\stm32f4xx_cec.c 0x00000000   Number         0  stm32f4xx_cec.o ABSOLUTE
    ..\Libraries\STM32F4xx_StdPeriph_Driver\src\stm32f4xx_crc.c 0x00000000   Number         0  stm32f4xx_crc.o ABSOLUTE
    ..\Libraries\STM32F4xx_StdPeriph_Driver\src\stm32f4xx_dac.c 0x00000000   Number         0  stm32f4xx_dac.o ABSOLUTE
    ..\Libraries\STM32F4xx_StdPeriph_Driver\src\stm32f4xx_dbgmcu.c 0x00000000   Number         0  stm32f4xx_dbgmcu.o ABSOLUTE
    ..\Libraries\STM32F4xx_StdPeriph_Driver\src\stm32f4xx_dcmi.c 0x00000000   Number         0  stm32f4xx_dcmi.o ABSOLUTE
    ..\Libraries\STM32F4xx_StdPeriph_Driver\src\stm32f4xx_dma.c 0x00000000   Number         0  stm32f4xx_dma.o ABSOLUTE
    ..\Libraries\STM32F4xx_StdPeriph_Driver\src\stm32f4xx_dma2d.c 0x00000000   Number         0  stm32f4xx_dma2d.o ABSOLUTE
    ..\Libraries\STM32F4xx_StdPeriph_Driver\src\stm32f4xx_exti.c 0x00000000   Number         0  stm32f4xx_exti.o ABSOLUTE
    ..\Libraries\STM32F4xx_StdPeriph_Driver\src\stm32f4xx_flash.c 0x00000000   Number         0  stm32f4xx_flash.o ABSOLUTE
    ..\Libraries\STM32F4xx_StdPeriph_Driver\src\stm32f4xx_flash_ramfunc.c 0x00000000   Number         0  stm32f4xx_flash_ramfunc.o ABSOLUTE
    ..\Libraries\STM32F4xx_StdPeriph_Driver\src\stm32f4xx_fsmc.c 0x00000000   Number         0  stm32f4xx_fsmc.o ABSOLUTE
    ..\Libraries\STM32F4xx_StdPeriph_Driver\src\stm32f4xx_gpio.c 0x00000000   Number         0  stm32f4xx_gpio.o ABSOLUTE
    ..\Libraries\STM32F4xx_StdPeriph_Driver\src\stm32f4xx_i2c.c 0x00000000   Number         0  stm32f4xx_i2c.o ABSOLUTE
    ..\Libraries\STM32F4xx_StdPeriph_Driver\src\stm32f4xx_iwdg.c 0x00000000   Number         0  stm32f4xx_iwdg.o ABSOLUTE
    ..\Libraries\STM32F4xx_StdPeriph_Driver\src\stm32f4xx_pwr.c 0x00000000   Number         0  stm32f4xx_pwr.o ABSOLUTE
    ..\Libraries\STM32F4xx_StdPeriph_Driver\src\stm32f4xx_rcc.c 0x00000000   Number         0  stm32f4xx_rcc.o ABSOLUTE
    ..\Libraries\STM32F4xx_StdPeriph_Driver\src\stm32f4xx_rtc.c 0x00000000   Number         0  stm32f4xx_rtc.o ABSOLUTE
    ..\Libraries\STM32F4xx_StdPeriph_Driver\src\stm32f4xx_sdio.c 0x00000000   Number         0  stm32f4xx_sdio.o ABSOLUTE
    ..\Libraries\STM32F4xx_StdPeriph_Driver\src\stm32f4xx_spi.c 0x00000000   Number         0  stm32f4xx_spi.o ABSOLUTE
    ..\Libraries\STM32F4xx_StdPeriph_Driver\src\stm32f4xx_syscfg.c 0x00000000   Number         0  stm32f4xx_syscfg.o ABSOLUTE
    ..\Libraries\STM32F4xx_StdPeriph_Driver\src\stm32f4xx_tim.c 0x00000000   Number         0  stm32f4xx_tim.o ABSOLUTE
    ..\Libraries\STM32F4xx_StdPeriph_Driver\src\stm32f4xx_usart.c 0x00000000   Number         0  stm32f4xx_usart.o ABSOLUTE
    ..\Libraries\STM32F4xx_StdPeriph_Driver\src\stm32f4xx_wwdg.c 0x00000000   Number         0  stm32f4xx_wwdg.o ABSOLUTE
    ..\TASK\read_task.c                      0x00000000   Number         0  read_task.o ABSOLUTE
    ..\TASK\send_task.c                      0x00000000   Number         0  send_task.o ABSOLUTE
    ..\User\74hc165\74hc165.c                0x00000000   Number         0  74hc165.o ABSOLUTE
    ..\User\adc\adc.c                        0x00000000   Number         0  adc.o ABSOLUTE
    ..\User\beeper\beeper.c                  0x00000000   Number         0  beeper.o ABSOLUTE
    ..\User\delay\delay.c                    0x00000000   Number         0  delay.o ABSOLUTE
    ..\User\iic_ee.c\iic_ee.c                0x00000000   Number         0  iic_ee.o ABSOLUTE
    ..\User\led\bsp_led.c                    0x00000000   Number         0  bsp_led.o ABSOLUTE
    ..\User\main.c                           0x00000000   Number         0  main.o ABSOLUTE
    ..\User\nrf24l01p\nrf24l01p.c            0x00000000   Number         0  nrf24l01p.o ABSOLUTE
    ..\User\pwm\pwm.c                        0x00000000   Number         0  pwm.o ABSOLUTE
    ..\User\soft_iic\soft_iic_gpio.c         0x00000000   Number         0  soft_iic_gpio.o ABSOLUTE
    ..\User\spi1\spi1.c                      0x00000000   Number         0  spi1.o ABSOLUTE
    ..\User\stm32f4xx_it.c                   0x00000000   Number         0  stm32f4xx_it.o ABSOLUTE
    ..\User\uart\bsp_debug_usart.c           0x00000000   Number         0  bsp_debug_usart.o ABSOLUTE
    ..\\FreeRTOS\\port\\MemMang\\heap_4.c    0x00000000   Number         0  heap_4.o ABSOLUTE
    ..\\FreeRTOS\\port\\RVDS\\ARM_CM4F\\port.c 0x00000000   Number         0  port.o ABSOLUTE
    ..\\FreeRTOS\\src\\croutine.c            0x00000000   Number         0  croutine.o ABSOLUTE
    ..\\FreeRTOS\\src\\event_groups.c        0x00000000   Number         0  event_groups.o ABSOLUTE
    ..\\FreeRTOS\\src\\list.c                0x00000000   Number         0  list.o ABSOLUTE
    ..\\FreeRTOS\\src\\queue.c               0x00000000   Number         0  queue.o ABSOLUTE
    ..\\FreeRTOS\\src\\tasks.c               0x00000000   Number         0  tasks.o ABSOLUTE
    ..\\FreeRTOS\\src\\timers.c              0x00000000   Number         0  timers.o ABSOLUTE
    ..\\Libraries\\CMSIS\\Device\\ST\\STM32F4xx\\Source\\Templates\\system_stm32f4xx.c 0x00000000   Number         0  system_stm32f4xx.o ABSOLUTE
    ..\\Libraries\\STM32F4xx_StdPeriph_Driver\\src\\misc.c 0x00000000   Number         0  misc.o ABSOLUTE
    ..\\Libraries\\STM32F4xx_StdPeriph_Driver\\src\\stm32f4xx_adc.c 0x00000000   Number         0  stm32f4xx_adc.o ABSOLUTE
    ..\\Libraries\\STM32F4xx_StdPeriph_Driver\\src\\stm32f4xx_cec.c 0x00000000   Number         0  stm32f4xx_cec.o ABSOLUTE
    ..\\Libraries\\STM32F4xx_StdPeriph_Driver\\src\\stm32f4xx_crc.c 0x00000000   Number         0  stm32f4xx_crc.o ABSOLUTE
    ..\\Libraries\\STM32F4xx_StdPeriph_Driver\\src\\stm32f4xx_dac.c 0x00000000   Number         0  stm32f4xx_dac.o ABSOLUTE
    ..\\Libraries\\STM32F4xx_StdPeriph_Driver\\src\\stm32f4xx_dbgmcu.c 0x00000000   Number         0  stm32f4xx_dbgmcu.o ABSOLUTE
    ..\\Libraries\\STM32F4xx_StdPeriph_Driver\\src\\stm32f4xx_dcmi.c 0x00000000   Number         0  stm32f4xx_dcmi.o ABSOLUTE
    ..\\Libraries\\STM32F4xx_StdPeriph_Driver\\src\\stm32f4xx_dma.c 0x00000000   Number         0  stm32f4xx_dma.o ABSOLUTE
    ..\\Libraries\\STM32F4xx_StdPeriph_Driver\\src\\stm32f4xx_dma2d.c 0x00000000   Number         0  stm32f4xx_dma2d.o ABSOLUTE
    ..\\Libraries\\STM32F4xx_StdPeriph_Driver\\src\\stm32f4xx_exti.c 0x00000000   Number         0  stm32f4xx_exti.o ABSOLUTE
    ..\\Libraries\\STM32F4xx_StdPeriph_Driver\\src\\stm32f4xx_flash.c 0x00000000   Number         0  stm32f4xx_flash.o ABSOLUTE
    ..\\Libraries\\STM32F4xx_StdPeriph_Driver\\src\\stm32f4xx_flash_ramfunc.c 0x00000000   Number         0  stm32f4xx_flash_ramfunc.o ABSOLUTE
    ..\\Libraries\\STM32F4xx_StdPeriph_Driver\\src\\stm32f4xx_fsmc.c 0x00000000   Number         0  stm32f4xx_fsmc.o ABSOLUTE
    ..\\Libraries\\STM32F4xx_StdPeriph_Driver\\src\\stm32f4xx_gpio.c 0x00000000   Number         0  stm32f4xx_gpio.o ABSOLUTE
    ..\\Libraries\\STM32F4xx_StdPeriph_Driver\\src\\stm32f4xx_i2c.c 0x00000000   Number         0  stm32f4xx_i2c.o ABSOLUTE
    ..\\Libraries\\STM32F4xx_StdPeriph_Driver\\src\\stm32f4xx_iwdg.c 0x00000000   Number         0  stm32f4xx_iwdg.o ABSOLUTE
    ..\\Libraries\\STM32F4xx_StdPeriph_Driver\\src\\stm32f4xx_pwr.c 0x00000000   Number         0  stm32f4xx_pwr.o ABSOLUTE
    ..\\Libraries\\STM32F4xx_StdPeriph_Driver\\src\\stm32f4xx_rcc.c 0x00000000   Number         0  stm32f4xx_rcc.o ABSOLUTE
    ..\\Libraries\\STM32F4xx_StdPeriph_Driver\\src\\stm32f4xx_rtc.c 0x00000000   Number         0  stm32f4xx_rtc.o ABSOLUTE
    ..\\Libraries\\STM32F4xx_StdPeriph_Driver\\src\\stm32f4xx_sdio.c 0x00000000   Number         0  stm32f4xx_sdio.o ABSOLUTE
    ..\\Libraries\\STM32F4xx_StdPeriph_Driver\\src\\stm32f4xx_spi.c 0x00000000   Number         0  stm32f4xx_spi.o ABSOLUTE
    ..\\Libraries\\STM32F4xx_StdPeriph_Driver\\src\\stm32f4xx_syscfg.c 0x00000000   Number         0  stm32f4xx_syscfg.o ABSOLUTE
    ..\\Libraries\\STM32F4xx_StdPeriph_Driver\\src\\stm32f4xx_tim.c 0x00000000   Number         0  stm32f4xx_tim.o ABSOLUTE
    ..\\Libraries\\STM32F4xx_StdPeriph_Driver\\src\\stm32f4xx_usart.c 0x00000000   Number         0  stm32f4xx_usart.o ABSOLUTE
    ..\\Libraries\\STM32F4xx_StdPeriph_Driver\\src\\stm32f4xx_wwdg.c 0x00000000   Number         0  stm32f4xx_wwdg.o ABSOLUTE
    ..\\TASK\\read_task.c                    0x00000000   Number         0  read_task.o ABSOLUTE
    ..\\TASK\\send_task.c                    0x00000000   Number         0  send_task.o ABSOLUTE
    ..\\User\\74hc165\\74hc165.c             0x00000000   Number         0  74hc165.o ABSOLUTE
    ..\\User\\adc\\adc.c                     0x00000000   Number         0  adc.o ABSOLUTE
    ..\\User\\beeper\\beeper.c               0x00000000   Number         0  beeper.o ABSOLUTE
    ..\\User\\delay\\delay.c                 0x00000000   Number         0  delay.o ABSOLUTE
    ..\\User\\iic_ee.c\\iic_ee.c             0x00000000   Number         0  iic_ee.o ABSOLUTE
    ..\\User\\led\\bsp_led.c                 0x00000000   Number         0  bsp_led.o ABSOLUTE
    ..\\User\\main.c                         0x00000000   Number         0  main.o ABSOLUTE
    ..\\User\\nrf24l01p\\nrf24l01p.c         0x00000000   Number         0  nrf24l01p.o ABSOLUTE
    ..\\User\\pwm\\pwm.c                     0x00000000   Number         0  pwm.o ABSOLUTE
    ..\\User\\soft_iic\\soft_iic_gpio.c      0x00000000   Number         0  soft_iic_gpio.o ABSOLUTE
    ..\\User\\spi1\\spi1.c                   0x00000000   Number         0  spi1.o ABSOLUTE
    ..\\User\\stm32f4xx_it.c                 0x00000000   Number         0  stm32f4xx_it.o ABSOLUTE
    ..\\User\\uart\\bsp_debug_usart.c        0x00000000   Number         0  bsp_debug_usart.o ABSOLUTE
    cdrcmple.s                               0x00000000   Number         0  cdrcmple.o ABSOLUTE
    dc.s                                     0x00000000   Number         0  dc.o ABSOLUTE
    handlers.s                               0x00000000   Number         0  handlers.o ABSOLUTE
    init.s                                   0x00000000   Number         0  init.o ABSOLUTE
    RESET                                    0x08000000   Section      392  startup_stm32f40xx.o(RESET)
    .ARM.Collect$$$$00000000                 0x08000188   Section        0  entry.o(.ARM.Collect$$$$00000000)
    .ARM.Collect$$$$00000001                 0x08000188   Section        4  entry2.o(.ARM.Collect$$$$00000001)
    .ARM.Collect$$$$00000004                 0x0800018c   Section        4  entry5.o(.ARM.Collect$$$$00000004)
    .ARM.Collect$$$$00000008                 0x08000190   Section        0  entry7b.o(.ARM.Collect$$$$00000008)
    .ARM.Collect$$$$0000000A                 0x08000190   Section        0  entry8b.o(.ARM.Collect$$$$0000000A)
    .ARM.Collect$$$$0000000B                 0x08000190   Section        8  entry9a.o(.ARM.Collect$$$$0000000B)
    .ARM.Collect$$$$0000000D                 0x08000198   Section        0  entry10a.o(.ARM.Collect$$$$0000000D)
    .ARM.Collect$$$$0000000F                 0x08000198   Section        0  entry11a.o(.ARM.Collect$$$$0000000F)
    .ARM.Collect$$$$00002712                 0x08000198   Section        4  entry2.o(.ARM.Collect$$$$00002712)
    __lit__00000000                          0x08000198   Data           4  entry2.o(.ARM.Collect$$$$00002712)
    .emb_text                                0x0800019c   Section      182  port.o(.emb_text)
    $v0                                      0x0800019c   Number         0  port.o(.emb_text)
    .text                                    0x08000254   Section       36  startup_stm32f40xx.o(.text)
    $v0                                      0x08000254   Number         0  startup_stm32f40xx.o(.text)
    .text                                    0x08000278   Section        0  uidiv.o(.text)
    .text                                    0x080002a4   Section       36  init.o(.text)
    i.ADC_Cmd                                0x080002c8   Section        0  stm32f4xx_adc.o(i.ADC_Cmd)
    i.ADC_CommonInit                         0x080002dc   Section        0  stm32f4xx_adc.o(i.ADC_CommonInit)
    i.ADC_DMACmd                             0x08000308   Section        0  stm32f4xx_adc.o(i.ADC_DMACmd)
    i.ADC_DMARequestAfterLastTransferCmd     0x0800031c   Section        0  stm32f4xx_adc.o(i.ADC_DMARequestAfterLastTransferCmd)
    i.ADC_Init                               0x08000330   Section        0  stm32f4xx_adc.o(i.ADC_Init)
    i.ADC_RegularChannelConfig               0x0800037c   Section        0  stm32f4xx_adc.o(i.ADC_RegularChannelConfig)
    i.ADC_SoftwareStartConv                  0x080003f0   Section        0  stm32f4xx_adc.o(i.ADC_SoftwareStartConv)
    i.ADC_StructInit                         0x080003fa   Section        0  stm32f4xx_adc.o(i.ADC_StructInit)
    i.ArmedAuxiliary                         0x08000410   Section        0  pwm.o(i.ArmedAuxiliary)
    i.BEEPER_Init                            0x08000458   Section        0  beeper.o(i.BEEPER_Init)
    i.BUTTON_Scan                            0x080004e4   Section        0  74hc165.o(i.BUTTON_Scan)
    i.BusFault_Handler                       0x08000500   Section        0  stm32f4xx_it.o(i.BusFault_Handler)
    i.DMA_Cmd                                0x08000502   Section        0  stm32f4xx_dma.o(i.DMA_Cmd)
    i.DMA_Init                               0x08000518   Section        0  stm32f4xx_dma.o(i.DMA_Init)
    i.DebugMon_Handler                       0x0800056c   Section        0  stm32f4xx_it.o(i.DebugMon_Handler)
    i.Debug_USART_Config                     0x08000570   Section        0  bsp_debug_usart.o(i.Debug_USART_Config)
    i.GPIO_Init                              0x08000634   Section        0  stm32f4xx_gpio.o(i.GPIO_Init)
    i.GPIO_PinAFConfig                       0x080006ac   Section        0  stm32f4xx_gpio.o(i.GPIO_PinAFConfig)
    i.GPIO_ReadInputDataBit                  0x080006cc   Section        0  stm32f4xx_gpio.o(i.GPIO_ReadInputDataBit)
    i.GPIO_ResetBits                         0x080006da   Section        0  stm32f4xx_gpio.o(i.GPIO_ResetBits)
    i.GPIO_SetBits                           0x080006de   Section        0  stm32f4xx_gpio.o(i.GPIO_SetBits)
    i.Getarmedflag                           0x080006e4   Section        0  pwm.o(i.Getarmedflag)
    i.HC165_GPIO_Config                      0x080006f0   Section        0  74hc165.o(i.HC165_GPIO_Config)
    i.HC165_Scan                             0x08000738   Section        0  74hc165.o(i.HC165_Scan)
    i.HardFault_Handler                      0x08000790   Section        0  stm32f4xx_it.o(i.HardFault_Handler)
    i.JS_ADC_Init                            0x08000794   Section        0  adc.o(i.JS_ADC_Init)
    i.JS_ADC_Mode_Config                     0x080007e0   Section        0  adc.o(i.JS_ADC_Mode_Config)
    JS_ADC_Mode_Config                       0x080007e1   Thumb Code   236  adc.o(i.JS_ADC_Mode_Config)
    i.LED_GPIO_Config                        0x080008d8   Section        0  bsp_led.o(i.LED_GPIO_Config)
    i.MemManage_Handler                      0x08000930   Section        0  stm32f4xx_it.o(i.MemManage_Handler)
    i.NMI_Handler                            0x08000932   Section        0  stm32f4xx_it.o(i.NMI_Handler)
    i.NRF24L01P_Check                        0x08000934   Section        0  nrf24l01p.o(i.NRF24L01P_Check)
    i.NRF24L01P_Init                         0x08000980   Section        0  nrf24l01p.o(i.NRF24L01P_Init)
    i.NRF24L01P_Read_Buf                     0x080009e4   Section        0  nrf24l01p.o(i.NRF24L01P_Read_Buf)
    i.NRF24L01P_Read_Reg                     0x08000a28   Section        0  nrf24l01p.o(i.NRF24L01P_Read_Reg)
    i.NRF24L01P_SPI_Init                     0x08000a54   Section        0  nrf24l01p.o(i.NRF24L01P_SPI_Init)
    i.NRF24L01P_TX_Mode                      0x08000aac   Section        0  nrf24l01p.o(i.NRF24L01P_TX_Mode)
    i.NRF24L01P_TxPacket                     0x08000b18   Section        0  nrf24l01p.o(i.NRF24L01P_TxPacket)
    i.NRF24L01P_Write_Buf                    0x08000b80   Section        0  nrf24l01p.o(i.NRF24L01P_Write_Buf)
    i.NRF24L01P_Write_Reg                    0x08000bc4   Section        0  nrf24l01p.o(i.NRF24L01P_Write_Reg)
    i.NVIC_Init                              0x08000bf4   Section        0  misc.o(i.NVIC_Init)
    i.NVIC_PriorityGroupConfig               0x08000c58   Section        0  misc.o(i.NVIC_PriorityGroupConfig)
    i.PWN_Modulation                         0x08000c6c   Section        0  pwm.o(i.PWN_Modulation)
    i.RCC_AHB1PeriphClockCmd                 0x08000d94   Section        0  stm32f4xx_rcc.o(i.RCC_AHB1PeriphClockCmd)
    i.RCC_APB1PeriphClockCmd                 0x08000dac   Section        0  stm32f4xx_rcc.o(i.RCC_APB1PeriphClockCmd)
    i.RCC_APB2PeriphClockCmd                 0x08000dc4   Section        0  stm32f4xx_rcc.o(i.RCC_APB2PeriphClockCmd)
    i.RCC_APB2PeriphResetCmd                 0x08000ddc   Section        0  stm32f4xx_rcc.o(i.RCC_APB2PeriphResetCmd)
    i.RCC_GetClocksFreq                      0x08000df4   Section        0  stm32f4xx_rcc.o(i.RCC_GetClocksFreq)
    i.ReadTaskCreate                         0x08000e84   Section        0  read_task.o(i.ReadTaskCreate)
    i.SPI1_Init                              0x08000eb4   Section        0  spi1.o(i.SPI1_Init)
    i.SPI1_ReadWriteByte                     0x08000f78   Section        0  spi1.o(i.SPI1_ReadWriteByte)
    i.SPI1_SetSpeed                          0x08000fac   Section        0  spi1.o(i.SPI1_SetSpeed)
    i.SPI_Cmd                                0x08000fc8   Section        0  stm32f4xx_spi.o(i.SPI_Cmd)
    i.SPI_I2S_GetFlagStatus                  0x08000fdc   Section        0  stm32f4xx_spi.o(i.SPI_I2S_GetFlagStatus)
    i.SPI_I2S_ReceiveData                    0x08000fea   Section        0  stm32f4xx_spi.o(i.SPI_I2S_ReceiveData)
    i.SPI_I2S_SendData                       0x08000fee   Section        0  stm32f4xx_spi.o(i.SPI_I2S_SendData)
    i.SPI_Init                               0x08000ff2   Section        0  stm32f4xx_spi.o(i.SPI_Init)
    i.SendTaskCreate                         0x0800102c   Section        0  send_task.o(i.SendTaskCreate)
    i.SetSysClock                            0x0800105c   Section        0  system_stm32f4xx.o(i.SetSysClock)
    SetSysClock                              0x0800105d   Thumb Code   162  system_stm32f4xx.o(i.SetSysClock)
    i.SysTick_CLKSourceConfig                0x08001110   Section        0  misc.o(i.SysTick_CLKSourceConfig)
    i.SysTick_Handler                        0x08001128   Section        0  delay.o(i.SysTick_Handler)
    i.SystemInit                             0x0800113c   Section        0  system_stm32f4xx.o(i.SystemInit)
    i.TIM3_IRQHandler                        0x08001198   Section        0  beeper.o(i.TIM3_IRQHandler)
    i.TIM_ClearITPendingBit                  0x080011d4   Section        0  stm32f4xx_tim.o(i.TIM_ClearITPendingBit)
    i.TIM_Cmd                                0x080011da   Section        0  stm32f4xx_tim.o(i.TIM_Cmd)
    i.TIM_GetITStatus                        0x080011ee   Section        0  stm32f4xx_tim.o(i.TIM_GetITStatus)
    i.TIM_ITConfig                           0x08001206   Section        0  stm32f4xx_tim.o(i.TIM_ITConfig)
    i.TIM_TimeBaseInit                       0x08001218   Section        0  stm32f4xx_tim.o(i.TIM_TimeBaseInit)
    i.USART_Cmd                              0x08001294   Section        0  stm32f4xx_usart.o(i.USART_Cmd)
    i.USART_GetFlagStatus                    0x080012a8   Section        0  stm32f4xx_usart.o(i.USART_GetFlagStatus)
    i.USART_ITConfig                         0x080012b6   Section        0  stm32f4xx_usart.o(i.USART_ITConfig)
    i.USART_Init                             0x080012e8   Section        0  stm32f4xx_usart.o(i.USART_Init)
    i.USART_SendData                         0x08001394   Section        0  stm32f4xx_usart.o(i.USART_SendData)
    i.UsageFault_Handler                     0x0800139c   Section        0  stm32f4xx_it.o(i.UsageFault_Handler)
    i.__0printf$3                            0x080013a0   Section        0  printf3.o(i.__0printf$3)
    i.__scatterload_copy                     0x080013c0   Section       14  handlers.o(i.__scatterload_copy)
    i.__scatterload_null                     0x080013ce   Section        2  handlers.o(i.__scatterload_null)
    i.__scatterload_zeroinit                 0x080013d0   Section       14  handlers.o(i.__scatterload_zeroinit)
    i._printf_core                           0x080013e0   Section        0  printf3.o(i._printf_core)
    _printf_core                             0x080013e1   Thumb Code   436  printf3.o(i._printf_core)
    i.delay_init                             0x08001598   Section        0  delay.o(i.delay_init)
    i.delay_us                               0x080015d0   Section        0  delay.o(i.delay_us)
    i.fputc                                  0x08001604   Section        0  bsp_debug_usart.o(i.fputc)
    i.main                                   0x08001628   Section        0  main.o(i.main)
    i.prvAddCurrentTaskToDelayedList         0x08001684   Section        0  tasks.o(i.prvAddCurrentTaskToDelayedList)
    prvAddCurrentTaskToDelayedList           0x08001685   Thumb Code   102  tasks.o(i.prvAddCurrentTaskToDelayedList)
    i.prvAddNewTaskToReadyList               0x080016f4   Section        0  tasks.o(i.prvAddNewTaskToReadyList)
    prvAddNewTaskToReadyList                 0x080016f5   Thumb Code   190  tasks.o(i.prvAddNewTaskToReadyList)
    i.prvCheckTasksWaitingTermination        0x080017c4   Section        0  tasks.o(i.prvCheckTasksWaitingTermination)
    prvCheckTasksWaitingTermination          0x080017c5   Thumb Code    74  tasks.o(i.prvCheckTasksWaitingTermination)
    i.prvDeleteTCB                           0x08001818   Section        0  tasks.o(i.prvDeleteTCB)
    prvDeleteTCB                             0x08001819   Thumb Code    20  tasks.o(i.prvDeleteTCB)
    i.prvHeapInit                            0x0800182c   Section        0  heap_4.o(i.prvHeapInit)
    prvHeapInit                              0x0800182d   Thumb Code    66  heap_4.o(i.prvHeapInit)
    i.prvIdleTask                            0x08001878   Section        0  tasks.o(i.prvIdleTask)
    prvIdleTask                              0x08001879   Thumb Code    30  tasks.o(i.prvIdleTask)
    i.prvInitialiseNewTask                   0x080018a0   Section        0  tasks.o(i.prvInitialiseNewTask)
    prvInitialiseNewTask                     0x080018a1   Thumb Code   138  tasks.o(i.prvInitialiseNewTask)
    i.prvInsertBlockIntoFreeList             0x08001954   Section        0  heap_4.o(i.prvInsertBlockIntoFreeList)
    prvInsertBlockIntoFreeList               0x08001955   Thumb Code    72  heap_4.o(i.prvInsertBlockIntoFreeList)
    i.prvResetNextTaskUnblockTime            0x080019a0   Section        0  tasks.o(i.prvResetNextTaskUnblockTime)
    prvResetNextTaskUnblockTime              0x080019a1   Thumb Code    26  tasks.o(i.prvResetNextTaskUnblockTime)
    i.prvTaskExitError                       0x080019c0   Section        0  port.o(i.prvTaskExitError)
    prvTaskExitError                         0x080019c1   Thumb Code    36  port.o(i.prvTaskExitError)
    i.pvPortMalloc                           0x08001a20   Section        0  heap_4.o(i.pvPortMalloc)
    i.pxPortInitialiseStack                  0x08001b30   Section        0  port.o(i.pxPortInitialiseStack)
    i.uxListRemove                           0x08001b5c   Section        0  list.o(i.uxListRemove)
    i.vListInitialise                        0x08001b80   Section        0  list.o(i.vListInitialise)
    i.vListInitialiseItem                    0x08001b96   Section        0  list.o(i.vListInitialiseItem)
    i.vListInsert                            0x08001b9c   Section        0  list.o(i.vListInsert)
    i.vListInsertEnd                         0x08001bcc   Section        0  list.o(i.vListInsertEnd)
    i.vPortEnterCritical                     0x08001be4   Section        0  port.o(i.vPortEnterCritical)
    i.vPortExitCritical                      0x08001c58   Section        0  port.o(i.vPortExitCritical)
    i.vPortFree                              0x08001cb8   Section        0  heap_4.o(i.vPortFree)
    i.vPortSetupTimerInterrupt               0x08001d50   Section        0  port.o(i.vPortSetupTimerInterrupt)
    i.vReadTask                              0x08001d70   Section        0  read_task.o(i.vReadTask)
    i.vSendTask                              0x08001dcc   Section        0  send_task.o(i.vSendTask)
    i.vStartTask                             0x08001e90   Section        0  main.o(i.vStartTask)
    i.vTaskDelay                             0x08001ee0   Section        0  tasks.o(i.vTaskDelay)
    i.vTaskDelete                            0x08001f50   Section        0  tasks.o(i.vTaskDelete)
    i.vTaskStartScheduler                    0x08002020   Section        0  tasks.o(i.vTaskStartScheduler)
    i.vTaskSuspendAll                        0x080020b0   Section        0  tasks.o(i.vTaskSuspendAll)
    i.vTaskSwitchContext                     0x080020c0   Section        0  tasks.o(i.vTaskSwitchContext)
    i.xPortStartScheduler                    0x08002140   Section        0  port.o(i.xPortStartScheduler)
    i.xPortSysTickHandler                    0x08002250   Section        0  port.o(i.xPortSysTickHandler)
    i.xTaskCreate                            0x0800227c   Section        0  tasks.o(i.xTaskCreate)
    i.xTaskGetSchedulerState                 0x080022d4   Section        0  tasks.o(i.xTaskGetSchedulerState)
    i.xTaskIncrementTick                     0x080022f0   Section        0  tasks.o(i.xTaskIncrementTick)
    i.xTaskResumeAll                         0x080023dc   Section        0  tasks.o(i.xTaskResumeAll)
    .constdata                               0x080024c4   Section       10  nrf24l01p.o(.constdata)
    .conststring                             0x080024d0   Section       73  send_task.o(.conststring)
    .data                                    0x20000000   Section       20  system_stm32f4xx.o(.data)
    .data                                    0x20000014   Section       16  stm32f4xx_rcc.o(.data)
    APBAHBPrescTable                         0x20000014   Data          16  stm32f4xx_rcc.o(.data)
    .data                                    0x20000024   Section        4  read_task.o(.data)
    .data                                    0x20000028   Section        4  send_task.o(.data)
    .data                                    0x2000002c   Section        4  main.o(.data)
    .data                                    0x20000030   Section        4  beeper.o(.data)
    .data                                    0x20000034   Section        1  74hc165.o(.data)
    .data                                    0x20000036   Section        8  adc.o(.data)
    .data                                    0x2000003e   Section        4  delay.o(.data)
    fac_us                                   0x2000003e   Data           1  delay.o(.data)
    fac_ms                                   0x20000040   Data           2  delay.o(.data)
    .data                                    0x20000044   Section       32  pwm.o(.data)
    tcount                                   0x20000050   Data           4  pwm.o(.data)
    .data                                    0x20000064   Section       60  tasks.o(.data)
    uxDeletedTasksWaitingCleanUp             0x20000068   Data           4  tasks.o(.data)
    uxCurrentNumberOfTasks                   0x2000006c   Data           4  tasks.o(.data)
    xTickCount                               0x20000070   Data           4  tasks.o(.data)
    uxTopReadyPriority                       0x20000074   Data           4  tasks.o(.data)
    xSchedulerRunning                        0x20000078   Data           4  tasks.o(.data)
    uxPendedTicks                            0x2000007c   Data           4  tasks.o(.data)
    xYieldPending                            0x20000080   Data           4  tasks.o(.data)
    xNumOfOverflows                          0x20000084   Data           4  tasks.o(.data)
    uxTaskNumber                             0x20000088   Data           4  tasks.o(.data)
    xNextTaskUnblockTime                     0x2000008c   Data           4  tasks.o(.data)
    xIdleTaskHandle                          0x20000090   Data           4  tasks.o(.data)
    uxSchedulerSuspended                     0x20000094   Data           4  tasks.o(.data)
    pxDelayedTaskList                        0x20000098   Data           4  tasks.o(.data)
    pxOverflowDelayedTaskList                0x2000009c   Data           4  tasks.o(.data)
    .data                                    0x200000a0   Section       24  heap_4.o(.data)
    pxEnd                                    0x200000a0   Data           4  heap_4.o(.data)
    xFreeBytesRemaining                      0x200000a4   Data           4  heap_4.o(.data)
    xMinimumEverFreeBytesRemaining           0x200000a8   Data           4  heap_4.o(.data)
    xBlockAllocatedBit                       0x200000ac   Data           4  heap_4.o(.data)
    xStart                                   0x200000b0   Data           8  heap_4.o(.data)
    .data                                    0x200000b8   Section       12  port.o(.data)
    ucMaxSysCallPriority                     0x200000b8   Data           1  port.o(.data)
    uxCriticalNesting                        0x200000bc   Data           4  port.o(.data)
    ulMaxPRIGROUPValue                       0x200000c0   Data           4  port.o(.data)
    .data                                    0x200000c4   Section        4  stdout.o(.data)
    .bss                                     0x200000c8   Section      740  tasks.o(.bss)
    pxReadyTasksLists                        0x200000c8   Data         640  tasks.o(.bss)
    xDelayedTaskList1                        0x20000348   Data          20  tasks.o(.bss)
    xDelayedTaskList2                        0x2000035c   Data          20  tasks.o(.bss)
    xPendingReadyList                        0x20000370   Data          20  tasks.o(.bss)
    xTasksWaitingTermination                 0x20000384   Data          20  tasks.o(.bss)
    xSuspendedTaskList                       0x20000398   Data          20  tasks.o(.bss)
    .bss                                     0x200003ac   Section    36864  heap_4.o(.bss)
    ucHeap                                   0x200003ac   Data       36864  heap_4.o(.bss)
    STACK                                    0x200093b0   Section     1024  startup_stm32f40xx.o(STACK)

    Global Symbols

    Symbol Name                              Value     Ov Type        Size  Object(Section)

    BuildAttributes$$THM_ISAv4$E$P$D$K$B$S$7EM$VFPi3$EXTD16$VFPS$VFMA$PE$A:L22UL41UL21$X:L11$S22US41US21$IEEE1$IW$USESV6$~STKCKD$USESV7$~SHL$OSPACE$ROPI$EBA8$MICROLIB$REQ8$PRES8$EABIv2 0x00000000   Number         0  anon$$obj.o ABSOLUTE
    __ARM_use_no_argv                        0x00000000   Number         0  main.o ABSOLUTE
    _printf_a                                0x00000000   Number         0  stubs.o ABSOLUTE
    _printf_c                                0x00000000   Number         0  stubs.o ABSOLUTE
    _printf_charcount                        0x00000000   Number         0  stubs.o ABSOLUTE
    _printf_d                                0x00000000   Number         0  stubs.o ABSOLUTE
    _printf_e                                0x00000000   Number         0  stubs.o ABSOLUTE
    _printf_f                                0x00000000   Number         0  stubs.o ABSOLUTE
    _printf_flags                            0x00000000   Number         0  stubs.o ABSOLUTE
    _printf_fp_dec                           0x00000000   Number         0  stubs.o ABSOLUTE
    _printf_fp_hex                           0x00000000   Number         0  stubs.o ABSOLUTE
    _printf_g                                0x00000000   Number         0  stubs.o ABSOLUTE
    _printf_i                                0x00000000   Number         0  stubs.o ABSOLUTE
    _printf_int_dec                          0x00000000   Number         0  stubs.o ABSOLUTE
    _printf_l                                0x00000000   Number         0  stubs.o ABSOLUTE
    _printf_lc                               0x00000000   Number         0  stubs.o ABSOLUTE
    _printf_ll                               0x00000000   Number         0  stubs.o ABSOLUTE
    _printf_lld                              0x00000000   Number         0  stubs.o ABSOLUTE
    _printf_lli                              0x00000000   Number         0  stubs.o ABSOLUTE
    _printf_llo                              0x00000000   Number         0  stubs.o ABSOLUTE
    _printf_llu                              0x00000000   Number         0  stubs.o ABSOLUTE
    _printf_llx                              0x00000000   Number         0  stubs.o ABSOLUTE
    _printf_longlong_dec                     0x00000000   Number         0  stubs.o ABSOLUTE
    _printf_longlong_hex                     0x00000000   Number         0  stubs.o ABSOLUTE
    _printf_longlong_oct                     0x00000000   Number         0  stubs.o ABSOLUTE
    _printf_ls                               0x00000000   Number         0  stubs.o ABSOLUTE
    _printf_mbtowc                           0x00000000   Number         0  stubs.o ABSOLUTE
    _printf_n                                0x00000000   Number         0  stubs.o ABSOLUTE
    _printf_o                                0x00000000   Number         0  stubs.o ABSOLUTE
    _printf_p                                0x00000000   Number         0  stubs.o ABSOLUTE
    _printf_percent                          0x00000000   Number         0  stubs.o ABSOLUTE
    _printf_pre_padding                      0x00000000   Number         0  stubs.o ABSOLUTE
    _printf_return_value                     0x00000000   Number         0  stubs.o ABSOLUTE
    _printf_s                                0x00000000   Number         0  stubs.o ABSOLUTE
    _printf_sizespec                         0x00000000   Number         0  stubs.o ABSOLUTE
    _printf_str                              0x00000000   Number         0  stubs.o ABSOLUTE
    _printf_truncate_signed                  0x00000000   Number         0  stubs.o ABSOLUTE
    _printf_truncate_unsigned                0x00000000   Number         0  stubs.o ABSOLUTE
    _printf_u                                0x00000000   Number         0  stubs.o ABSOLUTE
    _printf_wc                               0x00000000   Number         0  stubs.o ABSOLUTE
    _printf_wctomb                           0x00000000   Number         0  stubs.o ABSOLUTE
    _printf_widthprec                        0x00000000   Number         0  stubs.o ABSOLUTE
    _printf_x                                0x00000000   Number         0  stubs.o ABSOLUTE
    __cpp_initialize__aeabi_                  - Undefined Weak Reference
    __cxa_finalize                            - Undefined Weak Reference
    __decompress                              - Undefined Weak Reference
    _clock_init                               - Undefined Weak Reference
    _microlib_exit                            - Undefined Weak Reference
    __Vectors_Size                           0x00000188   Number         0  startup_stm32f40xx.o ABSOLUTE
    __Vectors                                0x08000000   Data           4  startup_stm32f40xx.o(RESET)
    __Vectors_End                            0x08000188   Data           0  startup_stm32f40xx.o(RESET)
    __main                                   0x08000189   Thumb Code     0  entry.o(.ARM.Collect$$$$00000000)
    _main_stk                                0x08000189   Thumb Code     0  entry2.o(.ARM.Collect$$$$00000001)
    _main_scatterload                        0x0800018d   Thumb Code     0  entry5.o(.ARM.Collect$$$$00000004)
    __main_after_scatterload                 0x08000191   Thumb Code     0  entry5.o(.ARM.Collect$$$$00000004)
    _main_clock                              0x08000191   Thumb Code     0  entry7b.o(.ARM.Collect$$$$00000008)
    _main_cpp_init                           0x08000191   Thumb Code     0  entry8b.o(.ARM.Collect$$$$0000000A)
    _main_init                               0x08000191   Thumb Code     0  entry9a.o(.ARM.Collect$$$$0000000B)
    __rt_final_cpp                           0x08000199   Thumb Code     0  entry10a.o(.ARM.Collect$$$$0000000D)
    __rt_final_exit                          0x08000199   Thumb Code     0  entry11a.o(.ARM.Collect$$$$0000000F)
    SVC_Handler                              0x0800019d   Thumb Code    28  port.o(.emb_text)
    __asm___6_port_c_39a90d8d__prvStartFirstTask 0x080001bd   Thumb Code    28  port.o(.emb_text)
    __asm___6_port_c_39a90d8d__prvEnableVFP  0x080001dd   Thumb Code    16  port.o(.emb_text)
    PendSV_Handler                           0x080001f1   Thumb Code    88  port.o(.emb_text)
    vPortGetIPSR                             0x0800024d   Thumb Code     6  port.o(.emb_text)
    Reset_Handler                            0x08000255   Thumb Code     8  startup_stm32f40xx.o(.text)
    ADC_IRQHandler                           0x0800026f   Thumb Code     0  startup_stm32f40xx.o(.text)
    CAN1_RX0_IRQHandler                      0x0800026f   Thumb Code     0  startup_stm32f40xx.o(.text)
    CAN1_RX1_IRQHandler                      0x0800026f   Thumb Code     0  startup_stm32f40xx.o(.text)
    CAN1_SCE_IRQHandler                      0x0800026f   Thumb Code     0  startup_stm32f40xx.o(.text)
    CAN1_TX_IRQHandler                       0x0800026f   Thumb Code     0  startup_stm32f40xx.o(.text)
    CAN2_RX0_IRQHandler                      0x0800026f   Thumb Code     0  startup_stm32f40xx.o(.text)
    CAN2_RX1_IRQHandler                      0x0800026f   Thumb Code     0  startup_stm32f40xx.o(.text)
    CAN2_SCE_IRQHandler                      0x0800026f   Thumb Code     0  startup_stm32f40xx.o(.text)
    CAN2_TX_IRQHandler                       0x0800026f   Thumb Code     0  startup_stm32f40xx.o(.text)
    CRYP_IRQHandler                          0x0800026f   Thumb Code     0  startup_stm32f40xx.o(.text)
    DCMI_IRQHandler                          0x0800026f   Thumb Code     0  startup_stm32f40xx.o(.text)
    DMA1_Stream0_IRQHandler                  0x0800026f   Thumb Code     0  startup_stm32f40xx.o(.text)
    DMA1_Stream1_IRQHandler                  0x0800026f   Thumb Code     0  startup_stm32f40xx.o(.text)
    DMA1_Stream2_IRQHandler                  0x0800026f   Thumb Code     0  startup_stm32f40xx.o(.text)
    DMA1_Stream3_IRQHandler                  0x0800026f   Thumb Code     0  startup_stm32f40xx.o(.text)
    DMA1_Stream4_IRQHandler                  0x0800026f   Thumb Code     0  startup_stm32f40xx.o(.text)
    DMA1_Stream5_IRQHandler                  0x0800026f   Thumb Code     0  startup_stm32f40xx.o(.text)
    DMA1_Stream6_IRQHandler                  0x0800026f   Thumb Code     0  startup_stm32f40xx.o(.text)
    DMA1_Stream7_IRQHandler                  0x0800026f   Thumb Code     0  startup_stm32f40xx.o(.text)
    DMA2_Stream0_IRQHandler                  0x0800026f   Thumb Code     0  startup_stm32f40xx.o(.text)
    DMA2_Stream1_IRQHandler                  0x0800026f   Thumb Code     0  startup_stm32f40xx.o(.text)
    DMA2_Stream2_IRQHandler                  0x0800026f   Thumb Code     0  startup_stm32f40xx.o(.text)
    DMA2_Stream3_IRQHandler                  0x0800026f   Thumb Code     0  startup_stm32f40xx.o(.text)
    DMA2_Stream4_IRQHandler                  0x0800026f   Thumb Code     0  startup_stm32f40xx.o(.text)
    DMA2_Stream5_IRQHandler                  0x0800026f   Thumb Code     0  startup_stm32f40xx.o(.text)
    DMA2_Stream6_IRQHandler                  0x0800026f   Thumb Code     0  startup_stm32f40xx.o(.text)
    DMA2_Stream7_IRQHandler                  0x0800026f   Thumb Code     0  startup_stm32f40xx.o(.text)
    ETH_IRQHandler                           0x0800026f   Thumb Code     0  startup_stm32f40xx.o(.text)
    ETH_WKUP_IRQHandler                      0x0800026f   Thumb Code     0  startup_stm32f40xx.o(.text)
    EXTI0_IRQHandler                         0x0800026f   Thumb Code     0  startup_stm32f40xx.o(.text)
    EXTI15_10_IRQHandler                     0x0800026f   Thumb Code     0  startup_stm32f40xx.o(.text)
    EXTI1_IRQHandler                         0x0800026f   Thumb Code     0  startup_stm32f40xx.o(.text)
    EXTI2_IRQHandler                         0x0800026f   Thumb Code     0  startup_stm32f40xx.o(.text)
    EXTI3_IRQHandler                         0x0800026f   Thumb Code     0  startup_stm32f40xx.o(.text)
    EXTI4_IRQHandler                         0x0800026f   Thumb Code     0  startup_stm32f40xx.o(.text)
    EXTI9_5_IRQHandler                       0x0800026f   Thumb Code     0  startup_stm32f40xx.o(.text)
    FLASH_IRQHandler                         0x0800026f   Thumb Code     0  startup_stm32f40xx.o(.text)
    FPU_IRQHandler                           0x0800026f   Thumb Code     0  startup_stm32f40xx.o(.text)
    FSMC_IRQHandler                          0x0800026f   Thumb Code     0  startup_stm32f40xx.o(.text)
    HASH_RNG_IRQHandler                      0x0800026f   Thumb Code     0  startup_stm32f40xx.o(.text)
    I2C1_ER_IRQHandler                       0x0800026f   Thumb Code     0  startup_stm32f40xx.o(.text)
    I2C1_EV_IRQHandler                       0x0800026f   Thumb Code     0  startup_stm32f40xx.o(.text)
    I2C2_ER_IRQHandler                       0x0800026f   Thumb Code     0  startup_stm32f40xx.o(.text)
    I2C2_EV_IRQHandler                       0x0800026f   Thumb Code     0  startup_stm32f40xx.o(.text)
    I2C3_ER_IRQHandler                       0x0800026f   Thumb Code     0  startup_stm32f40xx.o(.text)
    I2C3_EV_IRQHandler                       0x0800026f   Thumb Code     0  startup_stm32f40xx.o(.text)
    OTG_FS_IRQHandler                        0x0800026f   Thumb Code     0  startup_stm32f40xx.o(.text)
    OTG_FS_WKUP_IRQHandler                   0x0800026f   Thumb Code     0  startup_stm32f40xx.o(.text)
    OTG_HS_EP1_IN_IRQHandler                 0x0800026f   Thumb Code     0  startup_stm32f40xx.o(.text)
    OTG_HS_EP1_OUT_IRQHandler                0x0800026f   Thumb Code     0  startup_stm32f40xx.o(.text)
    OTG_HS_IRQHandler                        0x0800026f   Thumb Code     0  startup_stm32f40xx.o(.text)
    OTG_HS_WKUP_IRQHandler                   0x0800026f   Thumb Code     0  startup_stm32f40xx.o(.text)
    PVD_IRQHandler                           0x0800026f   Thumb Code     0  startup_stm32f40xx.o(.text)
    RCC_IRQHandler                           0x0800026f   Thumb Code     0  startup_stm32f40xx.o(.text)
    RTC_Alarm_IRQHandler                     0x0800026f   Thumb Code     0  startup_stm32f40xx.o(.text)
    RTC_WKUP_IRQHandler                      0x0800026f   Thumb Code     0  startup_stm32f40xx.o(.text)
    SDIO_IRQHandler                          0x0800026f   Thumb Code     0  startup_stm32f40xx.o(.text)
    SPI1_IRQHandler                          0x0800026f   Thumb Code     0  startup_stm32f40xx.o(.text)
    SPI2_IRQHandler                          0x0800026f   Thumb Code     0  startup_stm32f40xx.o(.text)
    SPI3_IRQHandler                          0x0800026f   Thumb Code     0  startup_stm32f40xx.o(.text)
    TAMP_STAMP_IRQHandler                    0x0800026f   Thumb Code     0  startup_stm32f40xx.o(.text)
    TIM1_BRK_TIM9_IRQHandler                 0x0800026f   Thumb Code     0  startup_stm32f40xx.o(.text)
    TIM1_CC_IRQHandler                       0x0800026f   Thumb Code     0  startup_stm32f40xx.o(.text)
    TIM1_TRG_COM_TIM11_IRQHandler            0x0800026f   Thumb Code     0  startup_stm32f40xx.o(.text)
    TIM1_UP_TIM10_IRQHandler                 0x0800026f   Thumb Code     0  startup_stm32f40xx.o(.text)
    TIM2_IRQHandler                          0x0800026f   Thumb Code     0  startup_stm32f40xx.o(.text)
    TIM4_IRQHandler                          0x0800026f   Thumb Code     0  startup_stm32f40xx.o(.text)
    TIM5_IRQHandler                          0x0800026f   Thumb Code     0  startup_stm32f40xx.o(.text)
    TIM6_DAC_IRQHandler                      0x0800026f   Thumb Code     0  startup_stm32f40xx.o(.text)
    TIM7_IRQHandler                          0x0800026f   Thumb Code     0  startup_stm32f40xx.o(.text)
    TIM8_BRK_TIM12_IRQHandler                0x0800026f   Thumb Code     0  startup_stm32f40xx.o(.text)
    TIM8_CC_IRQHandler                       0x0800026f   Thumb Code     0  startup_stm32f40xx.o(.text)
    TIM8_TRG_COM_TIM14_IRQHandler            0x0800026f   Thumb Code     0  startup_stm32f40xx.o(.text)
    TIM8_UP_TIM13_IRQHandler                 0x0800026f   Thumb Code     0  startup_stm32f40xx.o(.text)
    UART4_IRQHandler                         0x0800026f   Thumb Code     0  startup_stm32f40xx.o(.text)
    UART5_IRQHandler                         0x0800026f   Thumb Code     0  startup_stm32f40xx.o(.text)
    USART1_IRQHandler                        0x0800026f   Thumb Code     0  startup_stm32f40xx.o(.text)
    USART2_IRQHandler                        0x0800026f   Thumb Code     0  startup_stm32f40xx.o(.text)
    USART3_IRQHandler                        0x0800026f   Thumb Code     0  startup_stm32f40xx.o(.text)
    USART6_IRQHandler                        0x0800026f   Thumb Code     0  startup_stm32f40xx.o(.text)
    WWDG_IRQHandler                          0x0800026f   Thumb Code     0  startup_stm32f40xx.o(.text)
    __aeabi_uidiv                            0x08000279   Thumb Code     0  uidiv.o(.text)
    __aeabi_uidivmod                         0x08000279   Thumb Code    44  uidiv.o(.text)
    __scatterload                            0x080002a5   Thumb Code    28  init.o(.text)
    __scatterload_rt2                        0x080002a5   Thumb Code     0  init.o(.text)
    ADC_Cmd                                  0x080002c9   Thumb Code    20  stm32f4xx_adc.o(i.ADC_Cmd)
    ADC_CommonInit                           0x080002dd   Thumb Code    34  stm32f4xx_adc.o(i.ADC_CommonInit)
    ADC_DMACmd                               0x08000309   Thumb Code    20  stm32f4xx_adc.o(i.ADC_DMACmd)
    ADC_DMARequestAfterLastTransferCmd       0x0800031d   Thumb Code    20  stm32f4xx_adc.o(i.ADC_DMARequestAfterLastTransferCmd)
    ADC_Init                                 0x08000331   Thumb Code    66  stm32f4xx_adc.o(i.ADC_Init)
    ADC_RegularChannelConfig                 0x0800037d   Thumb Code   116  stm32f4xx_adc.o(i.ADC_RegularChannelConfig)
    ADC_SoftwareStartConv                    0x080003f1   Thumb Code    10  stm32f4xx_adc.o(i.ADC_SoftwareStartConv)
    ADC_StructInit                           0x080003fb   Thumb Code    20  stm32f4xx_adc.o(i.ADC_StructInit)
    ArmedAuxiliary                           0x08000411   Thumb Code    68  pwm.o(i.ArmedAuxiliary)
    BEEPER_Init                              0x08000459   Thumb Code   130  beeper.o(i.BEEPER_Init)
    BUTTON_Scan                              0x080004e5   Thumb Code    24  74hc165.o(i.BUTTON_Scan)
    BusFault_Handler                         0x08000501   Thumb Code     2  stm32f4xx_it.o(i.BusFault_Handler)
    DMA_Cmd                                  0x08000503   Thumb Code    20  stm32f4xx_dma.o(i.DMA_Cmd)
    DMA_Init                                 0x08000519   Thumb Code    80  stm32f4xx_dma.o(i.DMA_Init)
    DebugMon_Handler                         0x0800056d   Thumb Code     2  stm32f4xx_it.o(i.DebugMon_Handler)
    Debug_USART_Config                       0x08000571   Thumb Code   186  bsp_debug_usart.o(i.Debug_USART_Config)
    GPIO_Init                                0x08000635   Thumb Code   120  stm32f4xx_gpio.o(i.GPIO_Init)
    GPIO_PinAFConfig                         0x080006ad   Thumb Code    32  stm32f4xx_gpio.o(i.GPIO_PinAFConfig)
    GPIO_ReadInputDataBit                    0x080006cd   Thumb Code    14  stm32f4xx_gpio.o(i.GPIO_ReadInputDataBit)
    GPIO_ResetBits                           0x080006db   Thumb Code     4  stm32f4xx_gpio.o(i.GPIO_ResetBits)
    GPIO_SetBits                             0x080006df   Thumb Code     4  stm32f4xx_gpio.o(i.GPIO_SetBits)
    Getarmedflag                             0x080006e5   Thumb Code     6  pwm.o(i.Getarmedflag)
    HC165_GPIO_Config                        0x080006f1   Thumb Code    68  74hc165.o(i.HC165_GPIO_Config)
    HC165_Scan                               0x08000739   Thumb Code    78  74hc165.o(i.HC165_Scan)
    HardFault_Handler                        0x08000791   Thumb Code     2  stm32f4xx_it.o(i.HardFault_Handler)
    JS_ADC_Init                              0x08000795   Thumb Code    72  adc.o(i.JS_ADC_Init)
    LED_GPIO_Config                          0x080008d9   Thumb Code    84  bsp_led.o(i.LED_GPIO_Config)
    MemManage_Handler                        0x08000931   Thumb Code     2  stm32f4xx_it.o(i.MemManage_Handler)
    NMI_Handler                              0x08000933   Thumb Code     2  stm32f4xx_it.o(i.NMI_Handler)
    NRF24L01P_Check                          0x08000935   Thumb Code    68  nrf24l01p.o(i.NRF24L01P_Check)
    NRF24L01P_Init                           0x08000981   Thumb Code    90  nrf24l01p.o(i.NRF24L01P_Init)
    NRF24L01P_Read_Buf                       0x080009e5   Thumb Code    64  nrf24l01p.o(i.NRF24L01P_Read_Buf)
    NRF24L01P_Read_Reg                       0x08000a29   Thumb Code    40  nrf24l01p.o(i.NRF24L01P_Read_Reg)
    NRF24L01P_SPI_Init                       0x08000a55   Thumb Code    82  nrf24l01p.o(i.NRF24L01P_SPI_Init)
    NRF24L01P_TX_Mode                        0x08000aad   Thumb Code   100  nrf24l01p.o(i.NRF24L01P_TX_Mode)
    NRF24L01P_TxPacket                       0x08000b19   Thumb Code    96  nrf24l01p.o(i.NRF24L01P_TxPacket)
    NRF24L01P_Write_Buf                      0x08000b81   Thumb Code    64  nrf24l01p.o(i.NRF24L01P_Write_Buf)
    NRF24L01P_Write_Reg                      0x08000bc5   Thumb Code    42  nrf24l01p.o(i.NRF24L01P_Write_Reg)
    NVIC_Init                                0x08000bf5   Thumb Code    96  misc.o(i.NVIC_Init)
    NVIC_PriorityGroupConfig                 0x08000c59   Thumb Code    10  misc.o(i.NVIC_PriorityGroupConfig)
    PWN_Modulation                           0x08000c6d   Thumb Code   246  pwm.o(i.PWN_Modulation)
    RCC_AHB1PeriphClockCmd                   0x08000d95   Thumb Code    18  stm32f4xx_rcc.o(i.RCC_AHB1PeriphClockCmd)
    RCC_APB1PeriphClockCmd                   0x08000dad   Thumb Code    18  stm32f4xx_rcc.o(i.RCC_APB1PeriphClockCmd)
    RCC_APB2PeriphClockCmd                   0x08000dc5   Thumb Code    18  stm32f4xx_rcc.o(i.RCC_APB2PeriphClockCmd)
    RCC_APB2PeriphResetCmd                   0x08000ddd   Thumb Code    18  stm32f4xx_rcc.o(i.RCC_APB2PeriphResetCmd)
    RCC_GetClocksFreq                        0x08000df5   Thumb Code   132  stm32f4xx_rcc.o(i.RCC_GetClocksFreq)
    ReadTaskCreate                           0x08000e85   Thumb Code    26  read_task.o(i.ReadTaskCreate)
    SPI1_Init                                0x08000eb5   Thumb Code   186  spi1.o(i.SPI1_Init)
    SPI1_ReadWriteByte                       0x08000f79   Thumb Code    48  spi1.o(i.SPI1_ReadWriteByte)
    SPI1_SetSpeed                            0x08000fad   Thumb Code    24  spi1.o(i.SPI1_SetSpeed)
    SPI_Cmd                                  0x08000fc9   Thumb Code    20  stm32f4xx_spi.o(i.SPI_Cmd)
    SPI_I2S_GetFlagStatus                    0x08000fdd   Thumb Code    14  stm32f4xx_spi.o(i.SPI_I2S_GetFlagStatus)
    SPI_I2S_ReceiveData                      0x08000feb   Thumb Code     4  stm32f4xx_spi.o(i.SPI_I2S_ReceiveData)
    SPI_I2S_SendData                         0x08000fef   Thumb Code     4  stm32f4xx_spi.o(i.SPI_I2S_SendData)
    SPI_Init                                 0x08000ff3   Thumb Code    56  stm32f4xx_spi.o(i.SPI_Init)
    SendTaskCreate                           0x0800102d   Thumb Code    26  send_task.o(i.SendTaskCreate)
    SysTick_CLKSourceConfig                  0x08001111   Thumb Code    24  misc.o(i.SysTick_CLKSourceConfig)
    SysTick_Handler                          0x08001129   Thumb Code    20  delay.o(i.SysTick_Handler)
    SystemInit                               0x0800113d   Thumb Code    74  system_stm32f4xx.o(i.SystemInit)
    TIM3_IRQHandler                          0x08001199   Thumb Code    46  beeper.o(i.TIM3_IRQHandler)
    TIM_ClearITPendingBit                    0x080011d5   Thumb Code     6  stm32f4xx_tim.o(i.TIM_ClearITPendingBit)
    TIM_Cmd                                  0x080011db   Thumb Code    20  stm32f4xx_tim.o(i.TIM_Cmd)
    TIM_GetITStatus                          0x080011ef   Thumb Code    24  stm32f4xx_tim.o(i.TIM_GetITStatus)
    TIM_ITConfig                             0x08001207   Thumb Code    16  stm32f4xx_tim.o(i.TIM_ITConfig)
    TIM_TimeBaseInit                         0x08001219   Thumb Code    96  stm32f4xx_tim.o(i.TIM_TimeBaseInit)
    USART_Cmd                                0x08001295   Thumb Code    20  stm32f4xx_usart.o(i.USART_Cmd)
    USART_GetFlagStatus                      0x080012a9   Thumb Code    14  stm32f4xx_usart.o(i.USART_GetFlagStatus)
    USART_ITConfig                           0x080012b7   Thumb Code    48  stm32f4xx_usart.o(i.USART_ITConfig)
    USART_Init                               0x080012e9   Thumb Code   164  stm32f4xx_usart.o(i.USART_Init)
    USART_SendData                           0x08001395   Thumb Code     8  stm32f4xx_usart.o(i.USART_SendData)
    UsageFault_Handler                       0x0800139d   Thumb Code     2  stm32f4xx_it.o(i.UsageFault_Handler)
    __0printf$3                              0x080013a1   Thumb Code    22  printf3.o(i.__0printf$3)
    __1printf$3                              0x080013a1   Thumb Code     0  printf3.o(i.__0printf$3)
    __2printf                                0x080013a1   Thumb Code     0  printf3.o(i.__0printf$3)
    __scatterload_copy                       0x080013c1   Thumb Code    14  handlers.o(i.__scatterload_copy)
    __scatterload_null                       0x080013cf   Thumb Code     2  handlers.o(i.__scatterload_null)
    __scatterload_zeroinit                   0x080013d1   Thumb Code    14  handlers.o(i.__scatterload_zeroinit)
    delay_init                               0x08001599   Thumb Code    50  delay.o(i.delay_init)
    delay_us                                 0x080015d1   Thumb Code    48  delay.o(i.delay_us)
    fputc                                    0x08001605   Thumb Code    30  bsp_debug_usart.o(i.fputc)
    main                                     0x08001629   Thumb Code    44  main.o(i.main)
    pvPortMalloc                             0x08001a21   Thumb Code   214  heap_4.o(i.pvPortMalloc)
    pxPortInitialiseStack                    0x08001b31   Thumb Code    40  port.o(i.pxPortInitialiseStack)
    uxListRemove                             0x08001b5d   Thumb Code    36  list.o(i.uxListRemove)
    vListInitialise                          0x08001b81   Thumb Code    22  list.o(i.vListInitialise)
    vListInitialiseItem                      0x08001b97   Thumb Code     6  list.o(i.vListInitialiseItem)
    vListInsert                              0x08001b9d   Thumb Code    48  list.o(i.vListInsert)
    vListInsertEnd                           0x08001bcd   Thumb Code    24  list.o(i.vListInsertEnd)
    vPortEnterCritical                       0x08001be5   Thumb Code    50  port.o(i.vPortEnterCritical)
    vPortExitCritical                        0x08001c59   Thumb Code    34  port.o(i.vPortExitCritical)
    vPortFree                                0x08001cb9   Thumb Code    94  heap_4.o(i.vPortFree)
    vPortSetupTimerInterrupt                 0x08001d51   Thumb Code    26  port.o(i.vPortSetupTimerInterrupt)
    vReadTask                                0x08001d71   Thumb Code    80  read_task.o(i.vReadTask)
    vSendTask                                0x08001dcd   Thumb Code   104  send_task.o(i.vSendTask)
    vStartTask                               0x08001e91   Thumb Code    74  main.o(i.vStartTask)
    vTaskDelay                               0x08001ee1   Thumb Code    62  tasks.o(i.vTaskDelay)
    vTaskDelete                              0x08001f51   Thumb Code   152  tasks.o(i.vTaskDelete)
    vTaskStartScheduler                      0x08002021   Thumb Code    88  tasks.o(i.vTaskStartScheduler)
    vTaskSuspendAll                          0x080020b1   Thumb Code    10  tasks.o(i.vTaskSuspendAll)
    vTaskSwitchContext                       0x080020c1   Thumb Code    80  tasks.o(i.vTaskSwitchContext)
    xPortStartScheduler                      0x08002141   Thumb Code   196  port.o(i.xPortStartScheduler)
    xPortSysTickHandler                      0x08002251   Thumb Code    38  port.o(i.xPortSysTickHandler)
    xTaskCreate                              0x0800227d   Thumb Code    86  tasks.o(i.xTaskCreate)
    xTaskGetSchedulerState                   0x080022d5   Thumb Code    22  tasks.o(i.xTaskGetSchedulerState)
    xTaskIncrementTick                       0x080022f1   Thumb Code   188  tasks.o(i.xTaskIncrementTick)
    xTaskResumeAll                           0x080023dd   Thumb Code   180  tasks.o(i.xTaskResumeAll)
    TX_ADDRESS                               0x080024c4   Data           5  nrf24l01p.o(.constdata)
    RX_ADDRESS                               0x080024c9   Data           5  nrf24l01p.o(.constdata)
    Region$$Table$$Base                      0x0800251c   Number         0  anon$$obj.o(Region$$Table)
    Region$$Table$$Limit                     0x0800253c   Number         0  anon$$obj.o(Region$$Table)
    SystemCoreClock                          0x20000000   Data           4  system_stm32f4xx.o(.data)
    AHBPrescTable                            0x20000004   Data          16  system_stm32f4xx.o(.data)
    readtask                                 0x20000024   Data           4  read_task.o(.data)
    sendtask                                 0x20000028   Data           4  send_task.o(.data)
    startTask                                0x2000002c   Data           4  main.o(.data)
    TIM3time                                 0x20000030   Data           4  beeper.o(.data)
    HC_Recieve_Date                          0x20000034   Data           1  74hc165.o(.data)
    ADC_ConvertedValue                       0x20000036   Data           8  adc.o(.data)
    armedflag                                0x20000044   Data           1  pwm.o(.data)
    lx_pwm                                   0x20000046   Data           2  pwm.o(.data)
    ly_pwm                                   0x20000048   Data           2  pwm.o(.data)
    rx_pwm                                   0x2000004a   Data           2  pwm.o(.data)
    ry_pwm                                   0x2000004c   Data           2  pwm.o(.data)
    transport_date                           0x20000054   Data           8  pwm.o(.data)
    FineTuneData                             0x2000005c   Data           8  pwm.o(.data)
    pxCurrentTCB                             0x20000064   Data           4  tasks.o(.data)
    __stdout                                 0x200000c4   Data           4  stdout.o(.data)
    __initial_sp                             0x200097b0   Data           0  startup_stm32f40xx.o(STACK)



==============================================================================

Memory Map of the image

  Image Entry point : 0x08000189

  Load Region LR_IROM1 (Base: 0x08000000, Size: 0x00002604, Max: 0x00080000, ABSOLUTE)

    Execution Region ER_IROM1 (Base: 0x08000000, Size: 0x0000253c, Max: 0x00080000, ABSOLUTE)

    Base Addr    Size         Type   Attr      Idx    E Section Name        Object

    0x08000000   0x00000188   Data   RO            3    RESET               startup_stm32f40xx.o
    0x08000188   0x00000000   Code   RO         5556  * .ARM.Collect$$$$00000000  mc_w.l(entry.o)
    0x08000188   0x00000004   Code   RO         5824    .ARM.Collect$$$$00000001  mc_w.l(entry2.o)
    0x0800018c   0x00000004   Code   RO         5827    .ARM.Collect$$$$00000004  mc_w.l(entry5.o)
    0x08000190   0x00000000   Code   RO         5829    .ARM.Collect$$$$00000008  mc_w.l(entry7b.o)
    0x08000190   0x00000000   Code   RO         5831    .ARM.Collect$$$$0000000A  mc_w.l(entry8b.o)
    0x08000190   0x00000008   Code   RO         5832    .ARM.Collect$$$$0000000B  mc_w.l(entry9a.o)
    0x08000198   0x00000000   Code   RO         5834    .ARM.Collect$$$$0000000D  mc_w.l(entry10a.o)
    0x08000198   0x00000000   Code   RO         5836    .ARM.Collect$$$$0000000F  mc_w.l(entry11a.o)
    0x08000198   0x00000004   Code   RO         5825    .ARM.Collect$$$$00002712  mc_w.l(entry2.o)
    0x0800019c   0x000000b6   Code   RO         5470    .emb_text           port.o
    0x08000252   0x00000002   PAD
    0x08000254   0x00000024   Code   RO            4    .text               startup_stm32f40xx.o
    0x08000278   0x0000002c   Code   RO         5839    .text               mc_w.l(uidiv.o)
    0x080002a4   0x00000024   Code   RO         5854    .text               mc_w.l(init.o)
    0x080002c8   0x00000014   Code   RO          213    i.ADC_Cmd           stm32f4xx_adc.o
    0x080002dc   0x0000002c   Code   RO          214    i.ADC_CommonInit    stm32f4xx_adc.o
    0x08000308   0x00000014   Code   RO          217    i.ADC_DMACmd        stm32f4xx_adc.o
    0x0800031c   0x00000014   Code   RO          218    i.ADC_DMARequestAfterLastTransferCmd  stm32f4xx_adc.o
    0x08000330   0x0000004c   Code   RO          233    i.ADC_Init          stm32f4xx_adc.o
    0x0800037c   0x00000074   Code   RO          238    i.ADC_RegularChannelConfig  stm32f4xx_adc.o
    0x080003f0   0x0000000a   Code   RO          240    i.ADC_SoftwareStartConv  stm32f4xx_adc.o
    0x080003fa   0x00000014   Code   RO          242    i.ADC_StructInit    stm32f4xx_adc.o
    0x0800040e   0x00000002   PAD
    0x08000410   0x00000048   Code   RO         4729    i.ArmedAuxiliary    pwm.o
    0x08000458   0x0000008c   Code   RO         4230    i.BEEPER_Init       beeper.o
    0x080004e4   0x0000001c   Code   RO         4351    i.BUTTON_Scan       74hc165.o
    0x08000500   0x00000002   Code   RO         4173    i.BusFault_Handler  stm32f4xx_it.o
    0x08000502   0x00000014   Code   RO          806    i.DMA_Cmd           stm32f4xx_dma.o
    0x08000516   0x00000002   PAD
    0x08000518   0x00000054   Code   RO          818    i.DMA_Init          stm32f4xx_dma.o
    0x0800056c   0x00000002   Code   RO         4174    i.DebugMon_Handler  stm32f4xx_it.o
    0x0800056e   0x00000002   PAD
    0x08000570   0x000000c4   Code   RO         4269    i.Debug_USART_Config  bsp_debug_usart.o
    0x08000634   0x00000078   Code   RO         1564    i.GPIO_Init         stm32f4xx_gpio.o
    0x080006ac   0x00000020   Code   RO         1565    i.GPIO_PinAFConfig  stm32f4xx_gpio.o
    0x080006cc   0x0000000e   Code   RO         1568    i.GPIO_ReadInputDataBit  stm32f4xx_gpio.o
    0x080006da   0x00000004   Code   RO         1571    i.GPIO_ResetBits    stm32f4xx_gpio.o
    0x080006de   0x00000004   Code   RO         1572    i.GPIO_SetBits      stm32f4xx_gpio.o
    0x080006e2   0x00000002   PAD
    0x080006e4   0x0000000c   Code   RO         4730    i.Getarmedflag      pwm.o
    0x080006f0   0x00000048   Code   RO         4352    i.HC165_GPIO_Config  74hc165.o
    0x08000738   0x00000058   Code   RO         4353    i.HC165_Scan        74hc165.o
    0x08000790   0x00000002   Code   RO         4175    i.HardFault_Handler  stm32f4xx_it.o
    0x08000792   0x00000002   PAD
    0x08000794   0x0000004c   Code   RO         4390    i.JS_ADC_Init       adc.o
    0x080007e0   0x000000f8   Code   RO         4391    i.JS_ADC_Mode_Config  adc.o
    0x080008d8   0x00000058   Code   RO         4327    i.LED_GPIO_Config   bsp_led.o
    0x08000930   0x00000002   Code   RO         4176    i.MemManage_Handler  stm32f4xx_it.o
    0x08000932   0x00000002   Code   RO         4177    i.NMI_Handler       stm32f4xx_it.o
    0x08000934   0x0000004c   Code   RO         4643    i.NRF24L01P_Check   nrf24l01p.o
    0x08000980   0x00000064   Code   RO         4644    i.NRF24L01P_Init    nrf24l01p.o
    0x080009e4   0x00000044   Code   RO         4646    i.NRF24L01P_Read_Buf  nrf24l01p.o
    0x08000a28   0x0000002c   Code   RO         4647    i.NRF24L01P_Read_Reg  nrf24l01p.o
    0x08000a54   0x00000058   Code   RO         4649    i.NRF24L01P_SPI_Init  nrf24l01p.o
    0x08000aac   0x0000006c   Code   RO         4650    i.NRF24L01P_TX_Mode  nrf24l01p.o
    0x08000b18   0x00000068   Code   RO         4651    i.NRF24L01P_TxPacket  nrf24l01p.o
    0x08000b80   0x00000044   Code   RO         4652    i.NRF24L01P_Write_Buf  nrf24l01p.o
    0x08000bc4   0x00000030   Code   RO         4653    i.NRF24L01P_Write_Reg  nrf24l01p.o
    0x08000bf4   0x00000064   Code   RO          155    i.NVIC_Init         misc.o
    0x08000c58   0x00000014   Code   RO          156    i.NVIC_PriorityGroupConfig  misc.o
    0x08000c6c   0x00000128   Code   RO         4731    i.PWN_Modulation    pwm.o
    0x08000d94   0x00000018   Code   RO         2061    i.RCC_AHB1PeriphClockCmd  stm32f4xx_rcc.o
    0x08000dac   0x00000018   Code   RO         2070    i.RCC_APB1PeriphClockCmd  stm32f4xx_rcc.o
    0x08000dc4   0x00000018   Code   RO         2073    i.RCC_APB2PeriphClockCmd  stm32f4xx_rcc.o
    0x08000ddc   0x00000018   Code   RO         2075    i.RCC_APB2PeriphResetCmd  stm32f4xx_rcc.o
    0x08000df4   0x00000090   Code   RO         2082    i.RCC_GetClocksFreq  stm32f4xx_rcc.o
    0x08000e84   0x00000030   Code   RO         3992    i.ReadTaskCreate    read_task.o
    0x08000eb4   0x000000c4   Code   RO         4607    i.SPI1_Init         spi1.o
    0x08000f78   0x00000034   Code   RO         4608    i.SPI1_ReadWriteByte  spi1.o
    0x08000fac   0x0000001c   Code   RO         4609    i.SPI1_SetSpeed     spi1.o
    0x08000fc8   0x00000014   Code   RO         2961    i.SPI_Cmd           stm32f4xx_spi.o
    0x08000fdc   0x0000000e   Code   RO         2969    i.SPI_I2S_GetFlagStatus  stm32f4xx_spi.o
    0x08000fea   0x00000004   Code   RO         2972    i.SPI_I2S_ReceiveData  stm32f4xx_spi.o
    0x08000fee   0x00000004   Code   RO         2973    i.SPI_I2S_SendData  stm32f4xx_spi.o
    0x08000ff2   0x00000038   Code   RO         2974    i.SPI_Init          stm32f4xx_spi.o
    0x0800102a   0x00000002   PAD
    0x0800102c   0x00000030   Code   RO         4104    i.SendTaskCreate    send_task.o
    0x0800105c   0x000000b4   Code   RO           13    i.SetSysClock       system_stm32f4xx.o
    0x08001110   0x00000018   Code   RO          159    i.SysTick_CLKSourceConfig  misc.o
    0x08001128   0x00000014   Code   RO         4547    i.SysTick_Handler   delay.o
    0x0800113c   0x0000005c   Code   RO           15    i.SystemInit        system_stm32f4xx.o
    0x08001198   0x0000003c   Code   RO         4232    i.TIM3_IRQHandler   beeper.o
    0x080011d4   0x00000006   Code   RO         3192    i.TIM_ClearITPendingBit  stm32f4xx_tim.o
    0x080011da   0x00000014   Code   RO         3197    i.TIM_Cmd           stm32f4xx_tim.o
    0x080011ee   0x00000018   Code   RO         3218    i.TIM_GetITStatus   stm32f4xx_tim.o
    0x08001206   0x00000010   Code   RO         3222    i.TIM_ITConfig      stm32f4xx_tim.o
    0x08001216   0x00000002   PAD
    0x08001218   0x0000007c   Code   RO         3269    i.TIM_TimeBaseInit  stm32f4xx_tim.o
    0x08001294   0x00000014   Code   RO         3738    i.USART_Cmd         stm32f4xx_usart.o
    0x080012a8   0x0000000e   Code   RO         3741    i.USART_GetFlagStatus  stm32f4xx_usart.o
    0x080012b6   0x00000030   Code   RO         3744    i.USART_ITConfig    stm32f4xx_usart.o
    0x080012e6   0x00000002   PAD
    0x080012e8   0x000000ac   Code   RO         3745    i.USART_Init        stm32f4xx_usart.o
    0x08001394   0x00000008   Code   RO         3755    i.USART_SendData    stm32f4xx_usart.o
    0x0800139c   0x00000002   Code   RO         4178    i.UsageFault_Handler  stm32f4xx_it.o
    0x0800139e   0x00000002   PAD
    0x080013a0   0x00000020   Code   RO         5652    i.__0printf$3       mc_w.l(printf3.o)
    0x080013c0   0x0000000e   Code   RO         5866    i.__scatterload_copy  mc_w.l(handlers.o)
    0x080013ce   0x00000002   Code   RO         5867    i.__scatterload_null  mc_w.l(handlers.o)
    0x080013d0   0x0000000e   Code   RO         5868    i.__scatterload_zeroinit  mc_w.l(handlers.o)
    0x080013de   0x00000002   PAD
    0x080013e0   0x000001b8   Code   RO         5659    i._printf_core      mc_w.l(printf3.o)
    0x08001598   0x00000038   Code   RO         4548    i.delay_init        delay.o
    0x080015d0   0x00000034   Code   RO         4550    i.delay_us          delay.o
    0x08001604   0x00000024   Code   RO         4274    i.fputc             bsp_debug_usart.o
    0x08001628   0x0000005c   Code   RO         4139    i.main              main.o
    0x08001684   0x00000070   Code   RO         5100    i.prvAddCurrentTaskToDelayedList  tasks.o
    0x080016f4   0x000000d0   Code   RO         5101    i.prvAddNewTaskToReadyList  tasks.o
    0x080017c4   0x00000054   Code   RO         5102    i.prvCheckTasksWaitingTermination  tasks.o
    0x08001818   0x00000014   Code   RO         5103    i.prvDeleteTCB      tasks.o
    0x0800182c   0x0000004c   Code   RO         5409    i.prvHeapInit       heap_4.o
    0x08001878   0x00000028   Code   RO         5104    i.prvIdleTask       tasks.o
    0x080018a0   0x000000b4   Code   RO         5105    i.prvInitialiseNewTask  tasks.o
    0x08001954   0x0000004c   Code   RO         5410    i.prvInsertBlockIntoFreeList  heap_4.o
    0x080019a0   0x00000020   Code   RO         5106    i.prvResetNextTaskUnblockTime  tasks.o
    0x080019c0   0x00000060   Code   RO         5471    i.prvTaskExitError  port.o
    0x08001a20   0x00000110   Code   RO         5411    i.pvPortMalloc      heap_4.o
    0x08001b30   0x0000002c   Code   RO         5472    i.pxPortInitialiseStack  port.o
    0x08001b5c   0x00000024   Code   RO         4901    i.uxListRemove      list.o
    0x08001b80   0x00000016   Code   RO         4902    i.vListInitialise   list.o
    0x08001b96   0x00000006   Code   RO         4903    i.vListInitialiseItem  list.o
    0x08001b9c   0x00000030   Code   RO         4904    i.vListInsert       list.o
    0x08001bcc   0x00000018   Code   RO         4905    i.vListInsertEnd    list.o
    0x08001be4   0x00000074   Code   RO         5474    i.vPortEnterCritical  port.o
    0x08001c58   0x00000060   Code   RO         5475    i.vPortExitCritical  port.o
    0x08001cb8   0x00000098   Code   RO         5412    i.vPortFree         heap_4.o
    0x08001d50   0x00000020   Code   RO         5476    i.vPortSetupTimerInterrupt  port.o
    0x08001d70   0x0000005c   Code   RO         3993    i.vReadTask         read_task.o
    0x08001dcc   0x000000c4   Code   RO         4105    i.vSendTask         send_task.o
    0x08001e90   0x00000050   Code   RO         4140    i.vStartTask        main.o
    0x08001ee0   0x00000070   Code   RO         5113    i.vTaskDelay        tasks.o
    0x08001f50   0x000000d0   Code   RO         5115    i.vTaskDelete       tasks.o
    0x08002020   0x00000090   Code   RO         5124    i.vTaskStartScheduler  tasks.o
    0x080020b0   0x00000010   Code   RO         5126    i.vTaskSuspendAll   tasks.o
    0x080020c0   0x00000080   Code   RO         5127    i.vTaskSwitchContext  tasks.o
    0x08002140   0x00000110   Code   RO         5478    i.xPortStartScheduler  port.o
    0x08002250   0x0000002c   Code   RO         5479    i.xPortSysTickHandler  port.o
    0x0800227c   0x00000056   Code   RO         5129    i.xTaskCreate       tasks.o
    0x080022d2   0x00000002   PAD
    0x080022d4   0x0000001c   Code   RO         5132    i.xTaskGetSchedulerState  tasks.o
    0x080022f0   0x000000ec   Code   RO         5135    i.xTaskIncrementTick  tasks.o
    0x080023dc   0x000000e8   Code   RO         5140    i.xTaskResumeAll    tasks.o
    0x080024c4   0x0000000a   Data   RO         4654    .constdata          nrf24l01p.o
    0x080024ce   0x00000002   PAD
    0x080024d0   0x00000049   Data   RO         4106    .conststring        send_task.o
    0x08002519   0x00000003   PAD
    0x0800251c   0x00000020   Data   RO         5864    Region$$Table       anon$$obj.o


    Execution Region RW_IRAM1 (Base: 0x20000000, Size: 0x000097b0, Max: 0x00020000, ABSOLUTE)

    Base Addr    Size         Type   Attr      Idx    E Section Name        Object

    0x20000000   0x00000014   Data   RW           16    .data               system_stm32f4xx.o
    0x20000014   0x00000010   Data   RW         2114    .data               stm32f4xx_rcc.o
    0x20000024   0x00000004   Data   RW         3994    .data               read_task.o
    0x20000028   0x00000004   Data   RW         4107    .data               send_task.o
    0x2000002c   0x00000004   Data   RW         4141    .data               main.o
    0x20000030   0x00000004   Data   RW         4233    .data               beeper.o
    0x20000034   0x00000001   Data   RW         4354    .data               74hc165.o
    0x20000035   0x00000001   PAD
    0x20000036   0x00000008   Data   RW         4392    .data               adc.o
    0x2000003e   0x00000004   Data   RW         4552    .data               delay.o
    0x20000042   0x00000002   PAD
    0x20000044   0x00000020   Data   RW         4732    .data               pwm.o
    0x20000064   0x0000003c   Data   RW         5143    .data               tasks.o
    0x200000a0   0x00000018   Data   RW         5417    .data               heap_4.o
    0x200000b8   0x0000000c   Data   RW         5480    .data               port.o
    0x200000c4   0x00000004   Data   RW         5838    .data               mc_w.l(stdout.o)
    0x200000c8   0x000002e4   Zero   RW         5142    .bss                tasks.o
    0x200003ac   0x00009000   Zero   RW         5416    .bss                heap_4.o
    0x200093ac   0x00000004   PAD
    0x200093b0   0x00000400   Zero   RW            1    STACK               startup_stm32f40xx.o


==============================================================================

Image component sizes


      Code (inc. data)   RO Data    RW Data    ZI Data      Debug   Object Name

       188         18          0          1          0       1977   74hc165.o
       324         16          0          8          0       1911   adc.o
       200         24          0          4          0       1835   beeper.o
       232         16          0          0          0       3054   bsp_debug_usart.o
        88          4          0          0          0        594   bsp_led.o
       128         10          0          4          0       1862   delay.o
         0          0          0          0          0       1472   event_groups.o
       576        130          0         24      36864       3739   heap_4.o
       136          0          0          0          0       3050   list.o
       172         54          0          4          0       1737   main.o
       144         14          0          0          0       2249   misc.o
       704         58         10          0          0       6305   nrf24l01p.o
       882        296          0         12          0       9972   port.o
       380         60          0         32          0       3058   pwm.o
       140         34          0          4          0      11240   read_task.o
       244        114         73          4          0       1292   send_task.o
       276         18          0          0          0       1745   spi1.o
        36          8        392          0       1024        960   startup_stm32f40xx.o
       326         20          0          0          0       6228   stm32f4xx_adc.o
       104          4          0          0          0       2489   stm32f4xx_dma.o
       174          0          0          0          0       3591   stm32f4xx_gpio.o
        12          0          0          0          0       2785   stm32f4xx_it.o
       240         36          0         16          0       5524   stm32f4xx_rcc.o
        98          0          0          0          0       3670   stm32f4xx_spi.o
       190         28          0          0          0       4785   stm32f4xx_tim.o
       262          8          0          0          0       4097   stm32f4xx_usart.o
       272         36          0         20          0     328677   system_stm32f4xx.o
      1866        418          0         60        740      22216   tasks.o

    ----------------------------------------------------------------------
      8416       1424        512        196      38632     442114   Object Totals
         0          0         32          0          0          0   (incl. Generated)
        22          0          5          3          4          0   (incl. Padding)

    ----------------------------------------------------------------------

      Code (inc. data)   RO Data    RW Data    ZI Data      Debug   Library Member Name

         0          0          0          0          0          0   entry.o
         0          0          0          0          0          0   entry10a.o
         0          0          0          0          0          0   entry11a.o
         8          4          0          0          0          0   entry2.o
         4          0          0          0          0          0   entry5.o
         0          0          0          0          0          0   entry7b.o
         0          0          0          0          0          0   entry8b.o
         8          4          0          0          0          0   entry9a.o
        30          0          0          0          0          0   handlers.o
        36          8          0          0          0         68   init.o
       472         14          0          0          0        184   printf3.o
         0          0          0          4          0          0   stdout.o
        44          0          0          0          0         80   uidiv.o

    ----------------------------------------------------------------------
       604         30          0          4          0        332   Library Totals
         2          0          0          0          0          0   (incl. Padding)

    ----------------------------------------------------------------------

      Code (inc. data)   RO Data    RW Data    ZI Data      Debug   Library Name

       602         30          0          4          0        332   mc_w.l

    ----------------------------------------------------------------------
       604         30          0          4          0        332   Library Totals

    ----------------------------------------------------------------------

==============================================================================


      Code (inc. data)   RO Data    RW Data    ZI Data      Debug   

      9020       1454        512        200      38632     432098   Grand Totals
      9020       1454        512        200      38632     432098   ELF Image Totals
      9020       1454        512        200          0          0   ROM Totals

==============================================================================

    Total RO  Size (Code + RO Data)                 9532 (   9.31kB)
    Total RW  Size (RW Data + ZI Data)             38832 (  37.92kB)
    Total ROM Size (Code + RO Data + RW Data)       9732 (   9.50kB)

==============================================================================

